{
    "contractName": "EtherWallet",
    "abi": [
        {
            "inputs": [],
            "stateMutability": "nonpayable",
            "type": "constructor"
        },
        {
            "inputs": [],
            "name": "getBalance",
            "outputs": [
                {
                    "internalType": "uint256",
                    "name": "",
                    "type": "uint256"
                }
            ],
            "stateMutability": "view",
            "type": "function"
        },
        {
            "inputs": [],
            "name": "owner",
            "outputs": [
                {
                    "internalType": "address payable",
                    "name": "",
                    "type": "address"
                }
            ],
            "stateMutability": "view",
            "type": "function"
        },
        {
            "inputs": [
                {
                    "internalType": "uint256",
                    "name": "_amount",
                    "type": "uint256"
                }
            ],
            "name": "withdraw",
            "outputs": [],
            "stateMutability": "nonpayable",
            "type": "function"
        },
        {
            "stateMutability": "payable",
            "type": "receive"
        }
    ],
    "bytecode": "608060405234801561001057600080fd5b50600080546001600160a01b03191633179055610192806100326000396000f3fe6080604052600436106100385760003560e01c806312065fe0146100445780632e1a7d4d146100645780638da5cb5b1461008657600080fd5b3661003f57005b600080fd5b34801561005057600080fd5b506040514781526020015b60405180910390f35b34801561007057600080fd5b5061008461007f366004610143565b6100be565b005b34801561009257600080fd5b506000546100a6906001600160a01b031681565b6040516001600160a01b03909116815260200161005b565b6000546001600160a01b031633146101125760405162461bcd60e51b815260206004820152601360248201527231b0b63632b91034b9903737ba1037bbb732b960691b604482015260640160405180910390fd5b604051339082156108fc029083906000818181858888f1935050505015801561013f573d6000803e3d6000fd5b5050565b60006020828403121561015557600080fd5b503591905056fea26469706673582212202199bda97a60de0a11d92fdb001cc91ede2ef4d844fdcc87ec026adf9558936f64736f6c634300080d0033",
    "sourcePath": "c:/Users/14835/Desktop/币圈/solidity/EtherWallet.sol",
    "compiler": {
        "name": "solc",
        "version": "0.8.13+commit.abaa5c0e"
    },
    "functionHashes": {
        "getBalance()": "12065fe0",
        "owner()": "8da5cb5b",
        "withdraw(uint256)": "2e1a7d4d"
    },
    "gasEstimates": {
        "creation": {
            "codeDepositCost": "80400",
            "executionCost": "24364",
            "totalCost": "104764"
        },
        "external": {
            "getBalance()": "146",
            "owner()": "2359",
            "withdraw(uint256)": "infinite"
        }
    }
}